S01200005377697463684F6E4F66662E73333798
S31508006000001000202D670008DBCF0208FDF4000809
S315080060100BE30208DBCF0208DBCF0208DBCF02085E
S31508006020DBCF0208DBCF0208DBCF0208616200087B
S31508006030DBCF0208C45C0308F161000825FC0208EE
S31508006040DBCF0208DBCF0208DBCF0208DBCF020872
S31508006050DBCF0208DBCF0208DBCF0208DBCF020862
S31508006060DBCF0208DBCF0208DBCF0208DBCF020852
S31508006070DBCF0208DBCF0208DBCF0208DBCF020842
S31508006080DBCF0208DBCF020891B80008D1F600087A
S31508006090DBCF0208DBCF0208DBCF0208DBCF020822
S315080060A0DBCF0208DBCF0208756D0008516D0008CA
S315080060B0DBCF0208DBCF020815990108C1A3010846
S315080060C04B27030847270308559B0108572703084A
S315080060D04F27030899A301085327030801A40108B9
S315080060E0EDA40108DBCF0208DBCF0208DBCF0208EC
S315080060F0DBCF020807E30208DBCF0208DBCF020882
S31508006100DBCF0208DBCF0208DBCF0208DBCF0208B1
S31508006110DBCF0208DBCF020829C50208DBCF02085D
S31508006120DBCF0208DBCF0208DBCF0208DBCF020891
S31508006130DBCF0208DBCF0208DBCF0208DBCF020881
S31508006140DBCF0208DBCF0208DBCF02084586000852
S31508006150DBCF0208DBCF0208DBCF0208498401083F
S31508006160DBCF0208DBCF0208C3240308C9240308CF
S31508006170DBCF0208DBCF0208DBCF020800000000F5
S315080061800B4A1168086806C881F30B88022181F357
S315080061901488203080F30988BFF36F8F4FF0000012
S315080061A080F31188104700BFAFF30080AFF300807B
S315080061B0F02C002000000000000000000000000095
S315080061C007480068006880F3088862B661B6BFF3BE
S315080061D04F8FBFF36F8F02DF00BF00BFAFF30080A2
S315080061E008ED00E0000000000000000000000000CC
S315080061F0EFF309801EF0100F08BF20ED108AEFF3A9
S315080062000B82734620E9FC0F114A116808604FF0AB
S31508006210100080F31188BFF34F8FBFF36F8F09F01B
S315080062205FFF4FF0000080F31188094A116808687B
S31508006230B0E8FC0F13F0100F08BFB0EC108A82F319
S315080062400B8880F309881847AFF30080AFF3008006
S31508006250F02C0020000000000000000000000000F4
S315080062601EF0040F0CBFEFF30880EFF30980044912
S31508006270084700BFAFF30080AFF30080AFF300809C
S31508006280DF0603080348044B834202D0034B03B1DD
S31508006290184770478016002080160020000000006E
S315080062A0064B0749C91A891048BF0131491003D05E
S315080062B0044B0BB101481847704700BF80160020F1
S315080062C0801600200000000010B5064C237843B95C
S315080062D0FFF7D8FF044B13B10448AFF3008001233E
S315080062E0237010BD2E8B0020000000007CD303080D
S315080062F008B5054B1BB105490548AFF30080BDE855
S315080063000840FFF7CDBF00BF0000000000190020BD
S315080063107CD30308A3F5803A704700BF174B002BC0
S3150800632008BF134B9D46FFF7F5FF00218B460F4626
S315080063301348144A121A26F0BDFD0E4B002B00D046
S3150800634098470D4B002B00D09847002000210400E9
S315080063500D000D48002802D00C48AFF3008000F06D
S3150800636029F82000290026F0E1FD00F011F800BF09
S3150800637000000800000000000000000000100020D7
S3150800638080160020C4C000200000000000000000A5
S3150800639008B5064B044613B10021AFF30080044B41
S315080063A01B6803B19847204626F0B8FE0000000097
S315080063B0501A002070B50D4D00260D4C641BA41014
S315080063C0A64209D10B4D00260B4C2FF049FC641B45
S315080063D0A410A64205D170BD55F8043B013698476E
S315080063E0EEE755F8043B01369847F2E778160020A1
S315080063F078160020781600207C16002038B5054649
S31508006400002941D051F8043C0C1F002BB8BFE418F2
S3150800641000F0D8F81D4A136833B96360146028463B
S31508006420BDE8384000F0D4B8A34208D9206821183E
S315080064308B4201BF19685B6809182160EDE71A46A7
S315080064405B680BB1A342FAD911685018A0420BD168
S3150800645020680144501811608342E0D118685B68CF
S31508006460084453601060DAE702D90C232B60D6E79C
S31508006470206821188B4202BF19685B680918636097
S3150800648008BF21605460CAE738BD00BF5C1A002007
S3150800649070B50F4E0C460546316811B900F09EF8E6
S315080064A030602146284600F099F8431C03D14FF086
S315080064B0FF34204670BDC41C24F00304A042F8D063
S315080064C0211A284600F08AF80130F2D1EFE700BF1A
S315080064D0581A00202DE9F041CD1C064625F0030583
S315080064E008350C2D38BF0C25002D01DBA94204D92F
S315080064F00C2333600020BDE8F081314F00F062F8CC
S315080065003B681C4644BB29463046FFF7C1FF431C7F
S31508006510044650D13C682146002941D1002C44D07C
S315080065202368304604EB030800F058F880453CD150
S31508006530216830466D1A2946FFF7AAFF013034D084
S3150800654023682B4423603B68002B36D05A68A24246
S3150800655029D100225A600EE02268521B1DD40B2A4C
S3150800656016D96119A342256018BF5960636808BF28
S31508006570396062514B60304600F02AF804F10B008E
S31508006580231D20F00700C21AB5D01B1AA350B2E784
S31508006590A3426268DED13A60EDE723466468B1E754
S315080065A00C464968B8E71346CEE70C2330463360F5
S315080065B000F00EF89EE70560DDE75B60FFDE00BFD2
S315080065C05C1A0020014826F07DBC00BF2F8B0020F6
S315080065D0014826F078BC00BF2F8B002038B5002371
S315080065E0054D044608462B6000F05CFB431C02D1AF
S315080065F02B6803B1236038BD541A002013B5012057
S3150800660023F0ECFC08F074FB04460DF1070021F0BA
S315080066108BFB9DF8070028F053FB68B19DF80730FF
S31508006620237208F069FB02220346012105482DF072
S315080066309BFB002002B010BD04F108002EF071FA91
S31508006640EFE700BFC9CE0208004870475010002087
S31508006650034A18B1431E02EB4300704710467047C1
S31508006660C05C030810B5274C01F068F901F000FB7F
S31508006670236F23F0070343F00303236726F0A6FDE1
S31508006680214B00209B6ADB015EBF4FF480321F4B13
S315080066909A62D4F8203123F0070343F00203C4F8C2
S315080066A02031D4F8283123F0070343F00203C4F855
S315080066B02831D4F8403123F0030343F00203C4F829
S315080066C04031D4F8603123F0030343F00203C4F8E1
S315080066D06031D4F8403223F0030343F00203C4F8D0
S315080066E04032D4F8003223F0070343F00203C4F81B
S315080066F00032D4F8083223F0070343F00203C4F843
S31508006700083210BD008000500040005A0060005A50
S315080067100348044A0449121A921026F05FBC00BFC7
S31508006720F4DC0308F4DC0308C4C0002008B500F054
S315080067302FF8FFF7EDFF124B12498B4212D30020B8
S31508006740114B12498B4218D3FFF7E8FD186850F829
S315080067502240586840F82240013298688242F5D3B0
S315080067600C33EAE70022F8E71C6844F822000132F5
S315080067705C68A242F8D30833E4E70022F8E700BFD2
S3150800678068D6030874D6030874D6030874D60308B3
S315080067904FF480414FF0FF30114B124A10B59A6002
S315080067A0D3F8882042F47002C3F888200E4A91660E
S315080067B00E4901F5005210660D4850660220C3F8CE
S315080067C0D000BFF34F8FBFF36F8F01244FF44033D0
S315080067D00848C0F88041D36004600B6110BD00BF53
S315080067E000ED00E0006000080090005000800044C2
S315080067F07FFF7F0300E100E0014B1868704700BF88
S315080068003C110020084B1B6F03F00703022B04D032
S31508006810032B05D0012B05D0FEE7044B18687047FB
S31508006820034BFBE703487047008000503C110020EB
S3150800683044110020002D310108B5FFF7E3FF054B91
S315080068401B6FC3F303330133B0FBF3F0024B18603D
S3150800685008BD00BF0080005038110020004870476E
S3150800686000B4C404014B1868704700BF44110020E7
S31508006870054B1860054B1B6F03F00703032B01D16B
S31508006880FFF7DABF704700BF4411002000800050B0
S3150800689000487047002D31014FF0B4439868C0F3A3
S315080068A004400C280AD8DFE800F00B090909090991
S315080068B0072119091B1D1F000F4870470020704744
S315080068C09B6803F04073B3F1807F11D0B3F1007F6A
S315080068D010D00A4A002B08BF104670470848704770
S315080068E0084870470848704708487047084870477E
S315080068F00848704708487047405DC60000093D00D3
S31508006900C0EA210180BA8C010048E801005A6202F7
S315080069100024F40080841E0040420F00014B1868D2
S31508006920704700BF401100204FF000639B6A03F1D7
S315080069307842B2F5C04F03D21968064A914203D08D
S315080069400023037083607047012202709A689B696E
S315080069504260F7E707B0CD5E4FF00053074A1A606A
S31508006960BFF34F8F0649074BCA6802F4E062134328
S31508006970CB60BFF34F8F00BFFDE700BF02020FF0E9
S3150800698000ED00E00400FA0537B5244B04461A78F2
S315080069901AB102221A7003B030BDCDE900220028D0
S315080069A0F9D001251D7026F02DFC1D4B186010F03E
S315080069B03DFD1C4B5A6E62619B6E1B4AA3614FF4E8
S315080069C080439366194B5968E16119499960196EB4
S315080069D02160596E6160D3F87011A160196CE1608D
S315080069E0596C21611349086C1864496C59645566D9
S315080069F01B6E98040DD5104AD368D907FCD468468F
S31508006A0001A926F0FEFA009A0C4B1A66019A5A66F4
S31508006A10C1E70B4AD368DB07FCD4F0E7318B0020CB
S31508006A20801A00200080005000900050008000442A
S31508006A3055CEAC0000C0005400000440009000444D
S31508006A400000045070B51C4D04462E78012E02D065
S31508006A5001232B7070BD0028FCD026F028FB0130DE
S31508006A600BD026F024FB40F20113984205D0134BB5
S31508006A70134A5E66D368D907FCD42268114B1A6696
S31508006A8062685A66A268C3F87021E2681A642269C5
S31508006A905A64E269D20744BF00229A6062690A4BC7
S31508006AA05A66A2699A6610F0C9FC084B186826F05F
S31508006AB0AFFB0023CDE700BF318B002000900040DC
S31508006AC0000004400080004400800050801A002026
S31508006AD038B54FF00064A36A03F17842B2F5C04FA7
S31508006AE01AD21A680E4B9A4216D10E4D2B7813F00D
S31508006AF0FD0F02D00024204638BD0B48FFF744FF9F
S31508006B00A36ADB69984704460748FFF79BFF002CF2
S31508006B10F1D101232B70EDE74FF48174EBE700BF49
S31508006B2007B0CD5E308B0020601A002038B54FF0D4
S31508006B300065AB6A044603F17842B2F5C04F13D23A
S31508006B401B6B03F17843B3F5C04F0DD20848FFF726
S31508006B501BFFAB6A20461B6B5B69984704460448D3
S31508006B60FFF770FF204638BD4FF48174FAE700BF7F
S31508006B70841A0020F8B54FF00067BB6A164603F181
S31508006B807842B2F5C04F04460D4611D21B6B7BB155
S31508006B900948FFF7F9FEBB6A20461B6B32462946B1
S31508006BA05B6A984704460448FFF74CFF2046F8BD41
S31508006BB04FF40174FAE700BF841A002070B54FF04D
S31508006BC00066B36A044603F17842B2F5C04F0D4633
S31508006BD014D21B6B03F17843B3F5C04F0ED20948A4
S31508006BE0FFF7D2FEB36A20461B6B29469B6A984775
S31508006BF004460448FFF726FF204670BD4FF401748B
S31508006C00FAE700BF841A0020F8B54FF00067BB6AA0
S31508006C10164603F17842B2F5C04F04460D4615D222
S31508006C201B6B03F17843B3F5C04F0FD20948FFF742
S31508006C30ABFEBB6A20461B6B324629469B6B9847C0
S31508006C4004460448FFF7FEFE2046F8BD40F201144C
S31508006C50FAE700BF841A002070B54FF00066B36AE1
S31508006C60044603F17842B2F5C04F0D4614D21B6BA9
S31508006C7003F17843B3F5C04F0ED20948FFF784FEF7
S31508006C80B36A20461B6B2946DB6B984704460448C3
S31508006C90FFF7D8FE204670BD40F20114FAE700BFA0
S31508006CA0841A00200346054A0549106803448B42A6
S31508006CB08CBF4FF0FF301360704700BF48110020AB
S31508006CC00000042070B5044601250B4E04B970BDBA
S31508006CD094FAA4F0B0FA80F005FA00F306EB001275
S31508006CE024EA03045368002BF0D0117B11B1916894
S31508006CF09847EBE79847E9E7A41A002008B51A2051
S31508006D0000F0E2FF28B14FF08062074BC3F88021FC
S31508006D101A601B2000F0D8FF28B14FF00062024B22
S31508006D20C3F880211A6008BD00E100E038B50546C1
S31508006D300C4626F067FA0022044B03EB05135C6049
S31508006D401A73BDE8384026F063BA00BFA41A0020BB
S31508006D50074BD3F82404D3F8202403F50053104036
S31508006D6000F0553020F0A040C3F82004FFF7AABF72
S31508006D7000C00350074BD3F82404D3F8202403F5A6
S31508006D800053104000F0AA3020F02040C3F8200439
S31508006D90FFF798BF00C00350024B1968024B1868EA
S31508006DA00BF072BF4C1100206C11002070B59400D6
S31508006DB0224605460E462EF063FF431C0AD058B9F4
S31508006DC02246314628462EF0ADFD0028034808BF66
S31508006DD0002070BD0248FCE70248FAE710E000F020
S31508006DE021E000F024E000F010B504462EF044FF40
S31508006DF0431C10D088B901F0BBFA234620F00300E3
S31508006E002044984201D1002010BD53F8042B0132CA
S31508006E10F7D00348F8E70348F6E70348F4E700BF66
S31508006E200EE000F021E000F024E000F008B526F0BE
S31508006E30E2F9014B186008BD74200020014B186860
S31508006E4026F0DDB974200020034B5A6812B19A6AFD
S31508006E50002AFAD1704700BF00400650436812491D
S31508006E60B3FA83F310B5C3F11F044B680BB1FFF7F0
S31508006E70EBFF01220D4B5A604B689B07FCD4027A44
S31508006E80437843EA420343EA04130124427A8B60B7
S31508006E90837A43EA42034B62054B5C60037813B17D
S31508006EA0FFF7D2FFCC6010BD0040065000600650C8
S31508006EB000500650044B9A6AD006FCD419639A6AA5
S31508006EC0D206FCD4704700BF00400650014B186B31
S31508006ED0704700BF0040065008B5FFF7B5FF02230C
S31508006EE00449CB6000230B62FFF7AEFF0123CB609A
S31508006EF008BD00BF00400650044BD3F88420D206D4
S31508006F00FBD4D3F88400C0F38110704700400050CA
S31508006F1038B5104B0546D3F880300C4603F003030A
S31508006F20022B0BD0032B0DD0012B0FD1FFF76AFCD8
S31508006F300D2305B1286004B1236038BDFFF7ACFC0A
S31508006F400723F6E7FFF758FC0623F2E7002318465F
S31508006F50EFE700BF0080005038B5184B0546D3F858
S31508006F6020010C4600F00700062823D8DFE800F0C9
S31508006F70040A0E16121A1E00012305B1286004B170
S31508006F80236038BDFFF738FC0523F6E7FFF76AFCF0
S31508006F900323F2E7FFF780FC0723EEE7FFF778FC09
S31508006FA00223EAE7FFF728FC0623E6E7FFF75AFC81
S31508006FB00423E2E700231846DFE700BF00800050FD
S31508006FC038B5174B0546D3F828310C4603F00703A6
S31508006FD0013B052B20D8DFE803F003131B0F0B1723
S31508006FE0FFF70AFC052305B1286004B1236038BD04
S31508006FF0FFF702FC0623F6E7FFF74EFC0723F2E746
S31508007000FFF730FC0323EEE7FFF72CFC0423EAE73F
S31508007010FFF73EFC0223E6E700231846E3E700BF36
S315080070200080005073B50D460021114B0191D3F82D
S315080070308041064604F00304022C13D0032C0CD01E
S31508007040012C13D101A8FFF787FF0F240EB1019B6E
S31508007050336005B12C6002B070BDFFF71DFC072434
S315080070600190F3E7FFF714FC0190EFE70C46EDE714
S3150800707000800050002337B50193164B0546D3F818
S3150800708020320C4603F00703042B21D8DFE803F06F
S31508007090030B11161B0001230DB1019A2A6004B1D6
S315080070A0236003B030BD002101A8FFF789FF112333
S315080070B0F2E7FFF7F1FB07230190EDE725F09BFFC9
S315080070C00A230190E8E7FFF729FC09230190E3E783
S315080070D00023E1E70080005038B5104B0546D3F889
S315080070E040310C4603F00303022B0BD0032B0DD0C3
S315080070F0012B0FD125F07FFF0A2305B1286004B1C3
S31508007100236038BDFFF70AFC0923F6E725F076FF6A
S315080071100B23F2E701230020EFE700BF00800050B1
S31508007120002337B50193164B0546D3F860320C4653
S3150800713003F00703013B032B1FD8DFE803F0020E19
S315080071401914002101A8FFF707FF0F230DB1019AB3
S315080071502A6004B1236003B030BD002101A8FFF7FF
S31508007160BBFF1023F2E7FFF797FB07230190EDE734
S31508007170FFF78EFB02230190E8E70023E6E700BF4E
S315080071800080005038B5144B0546D3F800020C466B
S3150800719000F0070004281BD8DFE800F003090D11EA
S315080071A01500012305B1286004B1236038BD25F018
S315080071B022FF0A23F6E7FFF7B1FB0923F2E725F0DA
S315080071C01DFF0B23EEE7FFF737FB0E23800AE9E7DF
S315080071D000231846E6E700BF0080005038B5144B78
S315080071E00546D3F808020C4600F0070004281BD809
S315080071F0DFE800F003090D111500012305B1286029
S3150800720004B1236038BD25F0F6FE0A23F6E7FFF73A
S3150800721085FB0923F2E725F0F1FE0B23EEE7FFF7DE
S315080072200BFB0E23800AE9E700231846E6E700BFB2
S315080072300080005038B5104B0546D3F840320C464E
S3150800724003F00303022B0BD0032B0DD0012B0FD118
S3150800725025F0D1FE0A2305B1286004B1236038BDA4
S31508007260FFF75CFB0923F6E725F0C8FE0B23F2E7D8
S3150800727001230020EFE700BF0080005038B5104B0F
S315080072800546D3F850320C4603F00303022B12D0FE
S31508007290032B08D0012B0AD00023184605B1286015
S315080072A004B1236038BD25F0A9FE0B23F6E725F0C7
S315080072B0A2FE0A23F2E7FFF731FB0923EEE700BF38
S315080072C00080005038B5104B0546D3F860310C469F
S315080072D003F00303022B0BD0032B0DD0012B0FD188
S315080072E025F089FE0A2305B1286004B1236038BD5C
S315080072F0FFF714FB0923F6E725F080FE0B23F2E7D8
S3150800730001230020EFE700BF00800050B0F5207F82
S315080073101FD009D8B0F5007F15D003D868B1B0F5ED
S31508007320C07F0AD000200CE0B0F5607FFAD10B4B85
S31508007330D3F88000C0F3011003E0084B186FC0F3C0
S31508007340033001307047054BD3F89000C0F3046052
S31508007350F7E7024B186FC0F38020F2E70080005071
S3150800736002464FF48030104B10B598660020FFF7A0
S31508007370CDFF504341F671320C4BDC69DA635A682B
S3150800738004F4803422F4401259B90949884294BF5A
S3150800739000200120000502435A600CB10022DA637E
S315080073A010BD0449F2E700BF0090005000000350EA
S315080073B0005A6202002D3101430905D0012B0CD079
S315080073C0022B084B18BF002300F01F0039B103F544
S315080073D08053012282401A607047034BF4E703F595
S315080073E00053F6E768800050648000501FB50021FE
S315080073F0B0F5807F0446CDE9001100F0FC806BD81B
S31508007400002800F0D680A0F12004602C74D8602CE7
S3150800741072D8DFE814F0CE00D600CE00D600E6001B
S31508007420E600E600E600E600D600EB007A00010179
S315080074309A007A00D600D600D60071007100710055
S3150800744071007100710071000101D600D600D600E6
S315080074502F010601D60071007100710071007100DC
S3150800746071007100710071007100710071000B01EB
S31508007470E600CE00CE00CE00AE007A007A00B60056
S3150800748010018F00C500C500710071007100710000
S31508007490CE007100710071007100710071007100F9
S315080074A07100710071007100710071007100710046
S315080074B07100710071007100710071007100710036
S315080074C07100710071007100710071007100710026
S315080074D0710071007100CA00B0F5E06F00F0A1807C
S315080074E038D8B0F5607F77D01AD8B0F5007F63D06A
S315080074F005D8B0F5C07F5CD0009804B010BDB0F5D3
S31508007500207F5ED0B0F5407FF6D1FFF795F90246A9
S315080075104FF42070FFF7FAFEB2FBF0F2520859E07A
S31508007520B0F5B06F62D00AD8B0F5806F59D0B0F513
S31508007530A06FE1D100216846FFF79CFDDCE7B0F5B6
S31508007540C06F69D0B0F5D06FD6D100216846FFF775
S3150800755019FED1E7B0F5286F6DD017D8B0F5186FBA
S3150800756064D00BD8B0F5F06F00F08480B0F5106FDA
S31508007570C2D100216846FFF731FEBDE7B0F5206F9E
S31508007580BAD100216846FFF7CBFDB5E7B0F5306FF5
S315080075905FD0B1D3B0F5386F3ED0B0F5406FABD100
S315080075A000216846FFF70CFDA6E7FFF72BF90090C8
S315080075B0A2E7FFF741F9FAE7FFF724F90246204662
S315080075C004E0FFF739F902464FF42070FFF79EFEF4
S315080075D0B2FBF0F200928FE701A8FFF799FC019A37
S315080075E0EDE700216846FFF7B7FC85E70021684606
S315080075F0FFF718FD80E74FF0E02302911B695B0750
S3150800760005D5FFF719F90290029B009374E703A9C1
S3150800761002A8FFF761FDF7E700216846FFF75CFD62
S315080076206AE700216846FFF705FE65E70021684618
S31508007630FFF724FE60E70021114B0391D3F870325F
S3150800764003F00303012B02D103A8FFF745FD039BB3
S31508007650DBE70B4BD3F8903203F00303012B04D07E
S31508007660022B05D1FFF718F9A1E7FFF711F99EE7F5
S3150800767008469CE700216846FFF724FE3CE700BF62
S315080076800080005008B58020FFF7B0FE034B9842F3
S315080076909EBF4FF48032024B1A6708BD005A620239
S315080076A000A000501FB503460020B3F5607F019087
S315080076B000F006817BD8582B68D8382B06D8243B8F
S315080076C0092B49D9019805B05DF804FB393B1F2BF6
S315080076D0F8D801A252F823F07B780008C57600088E
S315080076E0C5760008C576000885780008D3780008AE
S315080076F0C5760008C5760008C5760008C576000870
S31508007700C5760008C5760008C5760008C57600085F
S31508007710C5760008C5760008C5760008C57600084F
S31508007720C5760008DD780008D5770008C576000814
S31508007730C5760008C576000819780008C5760008D9
S31508007740C5760008E7780008F1780008C9780008C7
S315080077503B7800083B780008092BB3D801A252F8F9
S3150800776023F000BFD5770008D5770008D57700083D
S31508007770D5770008D5770008C57600086778000829
S31508007780C57600087B780008F3770008802B59D067
S31508007790B3F5807F96D14FF0E02302901B695B0713
S315080077A066D5FFF749F80C230393039B57E0B3F517
S315080077B0086F6CD022D8B3F5C06F5ED00FD8B3F57A
S315080077C0A06F00F08180B3F5B06F4CD0B3F5806F31
S315080077D07FF478AF002001A9FFF7BEFB72E7B3F587
S315080077E0E06F76D0B3F5F06F4CD0B3F5D06F7FF479
S315080077F069AF002001A9FFF7C5FC63E7B3F5286F59
S3150800780076D00ED8B3F5186F68D0B3F5206F6AD066
S31508007810B3F5106F7FF456AF002001A9FFF7DEFC21
S3150800782050E7B3F5306F75D0FFF44CAFB3F5386F4A
S3150800783023D0B3F5406F7FF445AF002001A9FFF7C9
S31508007840BFFB3FE73C4B1B6F03F00703013B032BD2
S315080078503FF638AFDFE803F0050228300523019329
S3150800786030E70223FBE7002001A9FFF7DBFB29E746
S3150800787003A902A8FFF730FC97E7002001A9FFF744
S315080078802BFC1FE7002001A9FFF71CFD1AE72A4B6E
S31508007890D3F8003103F00303022B07D0032B09D0DA
S315080078A0012B0BD1FEF7DEFF0323D8E7FFF736F8E7
S315080078B00923D4E725F09DFB0823D0E70123CEE76B
S315080078C001A9FFF725FBFDE6002001A9FFF7D2FB7A
S315080078D0F8E6002001A9FFF7ADFCF3E6002001A9B0
S315080078E0FFF7CCFCEEE6002001A9FFF719FCE9E654
S315080078F0114BD3F8703203F00303012B04D0022B8B
S315080079000CBF14230023AAE7002103A8FFF7E4FB12
S315080079101023A4E7084BD3F8903203F00303012B96
S3150800792006D0022B02D1FEF7B7FF07200190C9E661
S31508007930FEF7AEFF0220F9E7008000504FF48012F0
S31508007940034B5A664FF48032024B9A62704700BF67
S31508007950009000500050005AF8B504468020FFF702
S31508007960A1FE032800F08A804FF48012564B574D2B
S315080079705A6645F60E034FF0A062C5F88030544BA0
S315080079809A624FF4803203F580539A62AB6DDA033C
S31508007990FCD4AE6D16F08046FBD1D4E900231B0556
S315080079A043EA0263E27B4B481343227B4A4F43EA8E
S315080079B00243627B43EA0233A27B43EA82132B61CA
S315080079C0AA69D4E904131B0643EA816302F000425C
S315080079D01343A27E4FF440611343227E43EA0243D7
S315080079E0627E43EA0223AB614FF4006225F0CCFBCA
S315080079F02B6AE17EE26923F00F0343EA8103002A3A
S31508007A003DD12B6294F8243094F82010AA6ADB0042
S31508007A1043EA41133A40134394F821202F4943EA95
S31508007A20021343F48033294AAB62936D31EA0303A8
S31508007A30FBD14FF08071264881621369A56823F44B
S31508007A40700343EA055313614FF00043836194F8CA
S31508007A5022300BB9224B996294F823303BB94FF484
S31508007A6080321F4B9A62194A936D5B00FCD494F8D6
S31508007A7025301BB1154B1B4AC3F88020F8BD1343AC
S31508007A8043F00803022A2B6208D12E614FF40852EC
S31508007A904FF47F411448AE6125F076FB0B4994F804
S31508007AA022308A6A94F820001B063A4043EA4013BB
S31508007AB0134394F8242043EAC20394F8232043EAA4
S31508007AC002438B62D3E700BF009000500040005A83
S31508007AD00050005A3840005AC7FFFEFE0300010056
S31508007AE00060005AF1A7FFFF3440005A014B93F992
S31508007AF00000704786140020F0B5D0E901434FF422
S31508007B0000061A4A4178057856664FF4D156022778
S31508007B1002F5B8325662164E4F2977604FF00107C4
S31508007B2028BF4F2106F5805677601669F603FCD400
S31508007B3041EA052151611B01417B43EA04230B43BA
S31508007B40017B43EA41039360C37B817B1B0143EAC4
S31508007B504113417C0B43017C43EA41035360837C18
S31508007B6013B16FF4D1535362F0BD00BF00900050BB
S31508007B7000100250014B1880704700BF1A140020ED
S31508007B80014B1880704700BF18140020B0F5207FFD
S31508007B9010B50C465DD008D8B0F5007F4ED003D896
S31508007BA0C0B1B0F5C07F15D010BDB0F5607FFBD170
S31508007BB02C4B4C1ED3F8FC202B4912F0807F4FEA41
S31508007BC0041427D1D1F8803023F030032343C1F8B9
S31508007BD08030E9E725F0E7FA25F0F3FA4FF480312B
S31508007BE0224B214A1967136F013C23F4704343EA79
S31508007BF004331367FEF720FE0446FFF77DF9C0F14C
S31508007C000201204625F0D7FA00F042F8BDE81040F8
S31508007C10FFF738BDD3F8FC2022F08072C3F8FC20A9
S31508007C20D1F8802022F030022243C1F88020D3F810
S31508007C30FC2042F08072C3F8FC20B5E70A4A4C1EC5
S31508007C40D2F8903023F0F85343EA0463C2F8903030
S31508007C50AAE7054A4C1E136F23F4806343EA84237C
S31508007C601367A1E700ED00E0008000500090005087
S31508007C7008B50121022000F08FF825F094FA25F0C6
S31508007C80A0FA4FF48032014B1A6708BD00900050E5
S31508007C9008B54FF4C070FFF7A9FBBDE808400449D2
S31508007CA0884294BF012102214FF42070FFF76EBF6E
S31508007CB080F0FA02034B5868C0F30800003818BF72
S31508007CC00120704700ED00E0054B420953F82230C9
S31508007CD000F01F0023FA00F0C04300F001007047CF
S31508007CE000E100E0024A536B0342FCD1704700BF33
S31508007CF000400950044A4178536F23F4407343EA1D
S31508007D0001235367704700BF004000500C4A10B566
S31508007D101369044643F00403136103F09BF925F045
S31508007D207AFA084B084AC3F8202430BF25F074FABB
S31508007D3003F0CAF91CB9BDE81040FEF77DBD10BDB9
S31508007D4000ED00E000E003500000FF0F0A4A10B5FE
S31508007D501369044643F004031361084B084AC3F841
S31508007D60202403F077F930BF03F0AEF91CB9BDE85B
S31508007D701040FEF761BD10BD00ED00E000E00350C5
S31508007D800000FF0F034A0179D36E23F030030B433B
S31508007D90D366704700400050F8B504461C4BD3F82C
S31508007DA08420D106FBD4D3F88430C3F381139C42D4
S31508007DB02CD0FEF727FD012C064602D1214625F0D8
S31508007DC0FAF925F018FA4FF00072124B07465A6670
S31508007DD0204625F026FA4FF480630D4D621E934027
S31508007DE02B676B6E9A0103D4D5F884309B060AD5A7
S31508007DF0384625F004FA022C08D13046BDE8F8408A
S31508007E00002125F0D8B9D5F88430EAE7F8BD00BFD7
S31508007E10004000500060005010B50C4608B9FEF747
S31508007E20F1FC074B21461B783BB1064B984204D818
S31508007E300120BDE81040FFF7AFBF0220F9E700BFF9
S31508007E40328B0020005A62020278034B012100207F
S31508007E501A70FFF7E1BF00BF328B00204FF00042D7
S31508007E6038B5244B244C5A664AF6CD33656C014620
S31508007E7005F00105236428BB0120FFF733FF63687B
S31508007E80DB0715D51D4B586008461D4B226BD207DC
S31508007E900CD4984208D1072415B1174B194A1A640D
S31508007EA02AF00EFD204638BD0130EFE79842F2D0A1
S31508007EB00024F1E70132236B13F0080305D08A4248
S31508007EC0F8D1E8E700220E49F5E78A42E3D02021F7
S31508007ED00A4A91620121A2F5805251600649084A70
S31508007EE0886A800603D49342D5D00133F8E79342D3
S31508007EF0DDE700BF009000500040095000600950BF
S31508007F0040420F003254FFFFF8B54AF6E8531A4CC0
S31508007F10E56EE66E236625F06EF90746FFF7A8FEBE
S31508007F20164A25F00305136F45F0020523F00703EB
S31508007F3043F00103136725F049F90020FFF78EFF88
S31508007F4025F06DF925F06CF90D4B0E4A46F003063F
S31508007F50C3F82024E56603F5AC23E666E566E6661F
S31508007F60E566E666E566E666E56638469B6ABDE862
S31508007F70F84025F044B900BF00400050008000508A
S31508007F8000E003500000FF0F4FF0004238B5164BD3
S31508007F9001465A664AF6CD33144C154A656C236475
S31508007FA043780B205B0043F00103D363FFF79AFE87
S31508007FB063688A7823F4F87343EA02136360CA781D
S31508007FC04B7943EA0223A3600A798B7943EA0223B1
S31508007FD023610878FFF742FFEB0744BF054B23648C
S31508007FE02AF06EFC012038BD009000500040095070
S31508007FF0004000503254FFFF4FF00042124B70B55C
S315080080005D6E03F580535A664AF6CD3304460F492A
S3150800801080204E6C0B64FFF765FE0B6A23F00F0396
S315080080200F2C94BF234343F00F030B62F30744BF9F
S31508008030074B0B64002DA2BF4FF00042054B5A6652
S315080080402AF03EFC70BD00BF008000500040095079
S315080080503254FFFF00A000504FF00042104B70B59D
S315080080605D6E03F580535A664AF6CD3304460D49CC
S3150800807080204E6C0B64FFF735FE0B6A23F4F85329
S3150800808043EA04230B62F30744BF074B0B64002D36
S31508008090A2BF4FF00042054B5A662AF011FC70BD8C
S315080080A000800050004009503254FFFF00A00050E5
S315080080B0072A2DE9F041154698464FF0030401F0CA
S315080080C003072DD89600B44000FA06F221461C484C
S315080080D025F0A8F821461B4807FA06F225F0A2F86B
S315080080E0194B1A499DF81800B8F1000F18BF194620
S315080080F0012303FA05F50D60154B1649002818BF2C
S315080081000B461D60144B9DF81C00C3F82054103113
S3150800811003F22443002818BF0B461D60BDE8F08112
S31508008120A2F10806B600B44000FA06F221460B484A
S3150800813025F078F821460A4807FA06F2CEE700BF86
S3150800814000C4035008C4035010D4035010E403506D
S3150800815014E4035014D4035000E0035004C403503D
S315080081600CC403502DE9F04105460F461E469046BD
S315080081704AB101233022194C8B4002FB004436B326
S3150800818004F5825423600F21072F05EB450388BFAA
S31508008190A7F108044FEA0313114895BFBC00A400D1
S315080081A004330C3308FA04F2A140184425F03AF8CF
S315080081B0B8F1000F09D101233021084ABB4001FB61
S315080081C005223EB102F582521360BDE8F08104F53E
S315080081D00154D7E702F50152F6E700BF00C0035085
S315080081E030C00350104B0140D3F8302422EA000275
S315080081F0C3F83024D3F830241143C3F83014D3F825
S315080082002C240243C3F82C24084AD36E03F0300307
S31508008210202B1FBFD36E23F0300343F01003D36621
S31508008220034BC3F82004704700C0035000400050B9
S3150800823000E003504FF48032054B9A6641F67132DE
S3150800824003F51C33DA63012203F50053DA6070473D
S315080082500090005041F671320121064BDA6303F5AE
S315080082600052D1600022DA634FF48032A3F5183346
S315080082709A66704700000350013831289ABF024BAE
S31508008280185C0020704700BF355D030810B5C2F3BF
S315080082900623044602F0070241B942EA032242F4E1
S315080082A040220634074B43F8242010BD11461846D1
S315080082B025F04CF802461846FFF7DEFF123442EA6C
S315080082C00022EFE70080035010B542EA03420A4C49
S315080082D051B90A4B43F82020D4F848260123834095
S315080082E01343C4F8483610BD054B43F82020D4F88C
S315080082F048260C30F2E700BF00C003504CC60350B6
S315080083007CC60350014BD3F89400704700400050D8
S315080083104FF48032084B5A6603F5E6239B69C3F38C
S31508008320461203F00F010A434280C3F30342C3F324
S3150800833003334270037070470090005040F6B7321E
S31508008340064B5B689BB293429FBF4FF47A72B3FBAE
S31508008350F2F3034AD05C88BF002070470080E00F24
S31508008360675D0308014B986CD96C70470080E00F75
S315080083700120034B9B680A3303F01F03984070479C
S315080083800080E00F044B586820F0404020F440007D
S31508008390000C0004704700BF0080E00F38B50446A3
S315080083A0064D29F05AFE0FCC0FC50FCC0FC594E821
S315080083B00F0085E80F00002038BD00BF7820002098
S315080083C047F6FF739A42F0B56FD009296FD8394B33
S315080083D05B5C042B6BD8384DDF0005EBC30415F83E
S315080083E03330A178012B13D10025E078401AA84232
S315080083F002D80844C0B2F0BD431B6668A0EB53031D
S3150800840036F913609642D4BF1D4603F1FF30EEE7F6
S3150800841060680028EFD0B0F90040944204DBB0F958
S3150800842002409442B8BF144683883D44FF2B19BFC7
S31508008430C8224FF0280CB0F90620B0F908C0A2EB04
S3150800844004030CBF0126002693FBFCF333446E7825
S315080084501BB29E4201DD002B01DA731E1BB24FF4DC
S315080084607A7C01339BB2071D5D1E2DB24FEAC50EFD
S3150800847000EBC505EA88AD689E4214FB025222EA63
S31508008480E27202F15C02B2FBFCF204DD37F833500B
S3150800849001339542E8D200EB0E039888904228BF34
S315080084A01046884238BF0846A4E7FF20A3E7002005
S315080084B0A1E700BF6A5D03087820002008B50448D4
S315080084C0FFF76CFFBDE80840012029F0C8BD00BFD2
S315080084D0745D030801282DE9F04147F6077306463F
S315080084E00F4614BF0624002490460F4AA11D52F8D1
S315080084F021501D4013D12B46042239463046FFF73A
S3150800850031FE424629462046FFF7C0FE3246294636
S315080085102046FBB2FFF7D8FE2046BDE8F0810134BD
S315080085200C2CE3D1F8E700BF008003502DE9F04199
S3150800853007F014F90128074624D907F043F9051E60
S3150800854003DA01242046BDE8F081204B1B78002B76
S3150800855039D100244FF050081D4E06F1100330465D
S31508008560C6E90044B360C6F80C8007F07BF93066AC
S3150800857080B90124012FE5D9284607F045F90028D6
S31508008580E0DADEE7114B1B7803F0FF05002BE0D09D
S315080085900024D7E70F4E214606F110033246012084
S315080085A0C6E90044C6E9023807F026FA306600280C
S315080085B0DFD01022084B83F8432308229A60012251
S315080085C0024B1A70D6E70024D6E700BF338B00208B
S315080085D00C210020A820002000E100E008B507F0E3
S315080085E0BDF802280FD1094B4FF0FF31186E07F07E
S315080085F083F9002814BF0120002003D14FF48062BC
S31508008600034B9A6608BD0020F8E700BF0C2100203E
S31508008610009000504FF4806208B5084B9A6607F040
S315080086209DF8022807D1064B186E07F095F9003811
S3150800863018BF012008BD0020F9E700BF00A00050C0
S315080086400C21002008B54FF098435B6CD90208D579
S3150800865007F084F80238012803D8094B186E07F08A
S3150800866059FA4FF098435A6CD202FCD55B6D054A0D
S3150800867003F4702313600822034BC3F8882108BD4E
S31508008680A82000207011002000E100E010B5044683
S3150800869000283BD0FFF7A2FF002838D1204624F057
S315080086A093FE94F8203043B94FF098435A6CD2029F
S315080086B0FCD55C6D04F4702412E04FF09844A36D69
S315080086C043F00203A36507F049F8022810D0A36D0A
S315080086D023F00203A3654FF4A0220D4B1C681A6011
S315080086E0FFF798FF9CB12046BDE8104024F006BF6E
S315080086F0084B4FF0FF31186E07F0D6F9A36D23F03B
S315080087000203A3650028E6D0012000E0212010BD61
S3150800871070110020A82000202DE9F0418CB0884671
S31508008720DDE912761D460446002847D0002945D0C3
S31508008730002F43D0002E41D013F00F033ED120481E
S315080087402049A360002A08BF0146E361C4E9001373
S31508008750404609A924F0CEFF68BB2046099924F0B3
S315080087602AFE2946204624F026FE6946404600F0A1
S315080087703FFC00BB6946204624F009FE404603A993
S3150800878025F0B7F8B8B9204603A924F000FE0697E5
S315080087900127204645F0005506A90797089524F0B5
S315080087A0F6FD204609A909960A970B9524F0F9FDC6
S315080087B02046FFF76BFF0CB0BDE8F0812120FAE7F1
S315080087C000010004000101042DE9F04F97B0894625
S315080087D090461F460546DDF880A0002800F0BB80BD
S315080087E0002900F0B8803AB1229B002B00F0B38034
S315080087F0239B002B00F0AF80BAF1000F00F0AB808E
S31508008800219B002B00F0A78067B13C680026229BBD
S3150800881043440293464507D307B13C60002017B08E
S31508008820BDE8F08F3C46F1E75CB1229B219A9B5D3F
S31508008830125D01345340239A04F00F049355013610
S31508008840E8E7A8EB060BBBF10F0F58D9434B484690
S31508008850C5E90034AC60EC6113A924F04BFF00288D
S31508008860DDD1284613992BF00F0B24F0A4FD5946A9
S31508008870284624F0A0FD484604A900F0B9FB0028C4
S31508008880CDD1284604A924F082FD484607A925F03B
S3150800889030F80028C3D1284607A924F078FD01231B
S315080088A022992F4ACDF828A00B930C928A190D927B
S315080088B028464BF000520AA90E9303920F9224F011
S315080088C066FD28460DA924F062FD239B039A991993
S315080088D00123109111931292214A284610A9CDF826
S315080088E04CA01493159224F05CFD284613A924F095
S315080088F058FD2846FFF7CAFE5E4400288FD1229B02
S3150800890003EB060B239B1E44029B5B4501D146469F
S3150800891080E7ACB9219B2246CDE900A3494610233E
S315080089202846FFF7F9FE00287FF479AF0AF110020E
S3150800893012F8013D0133DBB213700BB95245F7D17A
S31508008940219A1BF8013B125D0134534006F8013B9E
S3150800895004F00F04D8E7212061E700BF03030004F1
S31508008960100000202DE9F04F97B0894615469A4623
S315080089700446209FDDF88880DDF890B0269E002802
S3150800898000F09D80002900F09A80002E40F08A8031
S31508008990002B00F09480B8F1000F0AD0219B002B21
S315080089A000F08D80002A40F09F80F10700F1878053
S315080089B002E0002A40F08580FB1F062B7FD8524B29
S315080089C00BEB05029A427AD80023504A4846C4E976
S315080089D00023A360E36113A924F08CFE00285ED16E
S315080089E02046139924F0E7FC204646EA074124F07E
S315080089F0E2FC4146204624F0DEFC2946204624F0C7
S31508008A00DAFC484601A900F0F3FA002847D12046C7
S31508008A1001A924F0BCFC484604A924F06AFF0028F2
S31508008A203DD14FF00109204604A924F0B0FC239B50
S31508008A3045F000550793219BCDF8209020460995CF
S31508008A400DA90A9347F0005748F00053CDF82C902B
S31508008A500C93CDF834A0CDF838900F9724F097FCF6
S31508008A6020460AA924F093FC204607A924F08FFC87
S31508008A70259B204610A946F00056CDF840B0CDF803
S31508008A80449012951393CDF85090159624F089FCCE
S31508008A90204613A924F085FC2046FFF7F7FD17B0FA
S31508008AA0BDE8F08F259B53B1BAF1000F07D0B8F196
S31508008AB0000F01D0219B13B1B5B9022E20D1212078
S31508008AC0EDE7239B002BFAD0BBF1000FF7D0C7F1D7
S31508008AD00F03DBB2032B3FF668AF0122DB0002FA75
S31508008AE003F3AB42EBD9E8E7239B002BE7D0BBF1B6
S31508008AF0000FE4D0C7F10F03DBB2032BDDD8ECE798
S31508008B00102E7FF652AFDAE7FFFF032000000504B8
S31508008B102DE9F04F99B0884615469B460446229F94
S31508008B20DDF89890289E60B159B1279B4BB1BBF1EF
S31508008B30000F06D0249B0BB1239B13B11DB9022E3F
S31508008B4013D121239AE0259B002BFAD0B9F1000F07
S31508008B50F7D0C7F10F03DBB2032BF0D80122DB00F5
S31508008B6002FA03F3AB42ECD9E9E7731E0F2BE8D8F8
S31508008B7016F0010AE5D1FB1F062BE2D8414B09EB9B
S31508008B8005029A42DDD8404B4046C4E9003AC4F88B
S31508008B9008A0C4F81CA015A924F0ACFD03460028BB
S31508008BA06CD12046159924F006FC204646EA074172
S31508008BB024F001FC2046249924F0FDFB2946204692
S31508008BC024F0F9FB404603A900F012FA03460028F0
S31508008BD054D1204603A924F0DAFB404606A924F01E
S31508008BE088FE0346002849D14FF00108204606A909
S31508008BF024F0CDFB259B2046099345F00053CDF87C
S31508008C00288001930B93239B0FA90C93249B47F071
S31508008C10005743F00052CDF834800E92CDF83CB0A0
S31508008C20CDF84080119724F0B2FB20460CA924F019
S31508008C30AEFB204609A924F0AAFB019B204612A9EF
S31508008C40CDF84890CDF84C80149324F0AAFB279BC6
S31508008C50204615A946F000561593CDF85880179664
S31508008C6024F095FB2046FFF711FD034630B101902D
S31508008C702A465146484624F01DF9019B184619B064
S31508008C80BDE8F08FFFFF0320000006042DE9F04140
S31508008C908CB0884616461D460446129F00284BD0BF
S31508008CA0002949D0002A47D0002F45D00B68103B31
S31508008CB0102B41D8214A22FA03F3D9073CD50023C1
S31508008CC01F4A8360C0E90023C36109A9404624F00E
S31508008CD011FD70BB2046099924F06DFB29462046F4
S31508008CE024F069FB6946404600F082F908BB6946EC
S31508008CF0204624F04CFB404603A924F0FAFDC0B9EF
S31508008D00204603A924F043FB06960126204606A919
S31508008D1045F000550796089524F039FB094B20467F
S31508008D2009A909970A960B9324F03BFB2046FFF7FF
S31508008D30ADFC0CB0BDE8F0812120FAE70101010085
S31508008D4000000404100000202DE9FF474FF000083A
S31508008D500E4617460446CDF80080002859D022B999
S31508008D600025284604B0BDE8F087002951D032F026
S31508008D70030902F0030A1FD04FF0E063C0E9003888
S31508008D8001230191C0F808800293C0F81C8049F0BD
S31508008D90005301A9039324F004FB4946204624F016
S31508008DA00AFB2046FFF772FC054628B14A464146AB
S31508008DB0304624F07FF8D4E7BAF1000FD0D04FF050
S31508008DC000084FF0E063C4E900380123CDF804D069
S31508008DD00293114B204601A9C4F80880C4F81C80E8
S31508008DE0039324F0DEFA0421204624F0E4FA204610
S31508008DF0FFF74CFC054608B13A46D8E7009A4E44B8
S31508008E00EB00013522FA03F3AA4506F8013BF7D130
S31508008E10A6E72125A5E700BF040000202DE9F043B9
S31508008E2087B00D4691461E460446DDF83880002870
S31508008E3036D0B8F1000F33D002B98BBB6B1EDBB24C
S31508008E40042B2DD8174AD75C0F9B9F4228D800239E
S31508008E50280200F1407000F580703146C4E90133FC
S31508008E602060E361204624F0A6FA012369462046DD
S31508008E7046F0005647F00057CDF800900193029649
S31508008E80CDF80C800493059724F081FA204603A9AF
S31508008E9024F087FA2046FFF7F9FB07B0BDE8F08310
S31508008EA02120FAE7205F0308F0B50F4616461D464F
S31508008EB0044693B010B9212013B0F0BD0029FAD0AA
S31508008EC0002AF8D0002BF6D0002331461A46384639
S31508008ED024F0B5FB0028EFD1304602A924F04BFB5D
S31508008EE00028E9D1EB68022B0AD039683F48029A74
S31508008EF081426B6902D01830814270D19A42DAD821
S31508008F002B68002BD7D14FF060623846C4E900239E
S31508008F10A360E36101A924F0EDFB0028CCD10199F7
S31508008F20204621F4F061019124F045FA6946284665
S31508008F3024F0E0FB0028BFD12046009924F03BFA34
S31508008F40384609A900F054F80028B5D1204609A9E1
S31508008F5024F01DFA38460CA924F0CBFC0028ABD126
S31508008F6020460CA924F013FAEB684BB1284606A94B
S31508008F7000F03EF800289FD1204606A924F007FAFB
S31508008F80304603A924F0B5FC002895D1B368DA0465
S31508008F900CD59B0427D50621F36932691B6801FBAA
S31508008FA003225B0043F0005303920593204603A96E
S31508008FB024F0EDF928460FA924F09BFC00287FF43D
S31508008FC07BAF20460FA924F0ECF903252046FFF7CE
S31508008FD05DFB01287FF470AF013DF7D16CE7B3EB79
S31508008FE0420F8DD267E7292066E700BF200000B050
S31508008FF090B189B101234B60C368013B012B08D8A6
S315080090008269064B1AB10A6000208B607047044AD1
S31508009010F9E74FF00053F7E72120704708000020D2
S31508009020285F030870B50E46154604468AB0002820
S315080090305BD0002959D0002A57D0012329461A4661
S31508009040304624F0FCFA00284DD1B36813F4C04F1B
S315080090504BD0AB6803F4C043B3F5005F45D1254B4D
S31508009060A060C4E90030E06107A9304624F042FB5D
S31508009070002838D12046079924F09DF9304601A9E1
S31508009080FFF7B6FF78BB204624F081F9304604A9DD
S3150800909024F02FFC38BB204604A924F078F9EB68A5
S315080090A01BBBAB6803F4C043B3F5005F1DD169462B
S315080090B0284624F08BFAB0B9009B6A699A4216D3FF
S315080090C02A6943F0005307920122204607A908920D
S315080090D00325099324F065F92046FFF7D7FA0128F6
S315080090E001D1013DF8D10AB070BD2120FBE71D2052
S315080090F0F9E700BF0000010238B5134DFFF716FA6D
S31508009100124B134A1349144808F07CFD2B7803F0D8
S31508009110FF04BBB906F022FB012802D906F052FB70
S3150800912004462B782BB90D4B0D481B68984701232D
S315080091302B7006F013FB012804D92046BDE83840F9
S3150800914006F062BB38BD00BF348B0020BFDA0208C8
S31508009150E5DA02082DDB02080FDB020838120020C8
S3150800916078300020012300F01F02A0F506200949E7
S31508009170A0F550604009934051F820201A4341F861
S315080091802020054951F8202022EA030241F8202030
S31508009190704700BF78210020702100200122A0F529
S315080091A006230A49A3F550635B0900F01F008240B5
S315080091B051F82300024341F82320054AD2E9003238
S315080091C09B1808BFC1E90033704700BF7021002013
S315080091D0782100202DE9F047A2B04022002102A8FC
S315080091E023F068FE4022002112A823F063FE1C4CDF
S315080091F01C4F254605F10F09CDF800902B46102285
S31508009200386802A928F05DFD4FF0000806461034BC
S315080092100DF1080AB04516D1CDF800902B4610225C
S31508009220386812A928F056FD002605460DF14808AB
S31508009230AE420FD10C4B9C42DBD101220B4B1A706C
S3150800924022B0BDE8F0875AF8040BFFF78BFF08F148
S315080092500108DFE758F8040BFFF7A0FF0136E7E738
S31508009260006D08006C11002000710800358B002085
S315080092702DE9F04780460F461E46154688B00AB1C6
S31508009280002313600EB1002333604FF0100ADFF895
S31508009290B090CDF800A000233A464146D9F8000020
S315080092A009F064FE0446F8B93B68214A93422ED178
S315080092B04FF0180A0146524602A823F0FBFDCDF8E6
S315080092C000A023464146D9F8000002AA09F04EFE3E
S315080092D0044648B9069B7B60DDE90423C7E90223F7
S315080092E0144B3B6025B9144C204608B0BDE8F087FE
S315080092F0114CC5F800A0002EF6D033464146D9F8E1
S31508009300000002AA09F086FE60B10446ECE7094AA5
S315080093101DB99342E8D0094CE6E79342C5F800A088
S31508009320E9D0F8E733682A689B1A3360DCE700BFA0
S31508009330D175E105105D175EFEDF00F0FFDF00F076
S315080093406C11002070B5104D2B7803F0FF04ABB9F3
S3150800935006F004FA012802D906F034FA04462B78F6
S315080093602BB90A4B0A481B68984701232B7006F04D
S31508009370F5F9012802D9204606F046FABDE87040FC
S31508009380044B03481B681847368B00203812002008
S315080093908021002030120020034B1B781BB1034BA1
S315080093A003481B6818477047368B00202C1200208C
S315080093B0802100202DE9F04F87B0824689469846DD
S315080093C01646DDF840B02AB1002B53D040F26C7334
S315080093D09A4252D8BBF1010F52D8002406F1100761
S315080093E039460120059426F000FC054600284AD097
S315080093F021463A4623F05EFDFFF7A4FF05ABCDE90B
S31508009400014300942B4601225046494600F042F893
S31508009410044690B110F18C0F08BF6FF08D043A46E0
S315080094200021284623F046FD284626F0EEFBFFF7E6
S31508009430B3FF204607B0BDE8F08F144BC5E902A973
S315080094402B60C5F804B02EB13246414605F110002E
S315080094502CF0A0FA059E0E483B462A46314600687F
S3150800946009F0ECFC18B93046FFF77CFED7E76FF039
S315080094709104D4E76FF08604DBE76FF09104D8E730
S315080094806FF08504D5E76FF08C04D2E7105D175EA0
S315080094906C1100202DE9F04F9FB002921F4604463A
S315080094A00822CDE90301414021FA02F34B4098070F
S315080094B002F1080218BF9B00202A1C44F4D121237C
S315080094C0B4FBF3F303EB4313E41AA14B04F50624A8
S315080094D01B7804F550640BBBFDF75EFC002840F0D2
S315080094E079819C4E3368E82B16D1DFF880828DF897
S315080094F01F0001239849D8F800000DF11F0209F052
S31508009500E7FC18B1954B984240F064819DF81F30EE
S315080095103A2B38D13A233360FFF75CFE4FF0210827
S315080095200026DFF85092DFF850A2A4F50625A5F527
S3150800953050635B0959F8232004F01F01CA40D2077B
S3150800954000F11E815AF82330CB40DB0740F1F38047
S31508009550002E08BF26462123A5F6FF45B5FBF3F3E3
S3150800956003EB4313ED1A05F50624B8F1010804F5D3
S315080095705064DAD1029B002B00F0DF80002E00F049
S31508009580DC803446DFE0402200210EA823F092FC5E
S31508009590734DDFF8DC9105F10F0200922B4610227D
S315080095A0D8F800000EA9103528F08BFB002853D0F8
S315080095B0102200210AA823F07DFC00230E98CDE98D
S315080095C0083309AA08AB0AA9FFF752FE654B984269
S315080095D000F0008118B1013B984240F0FB800A9BDD
S315080095E0DFF898914B4503D05F4A934240F0F280EA
S315080095F07423402200210EA8336023F05BFC10225E
S3150800960000210AA823F056FC0023DFF854810893AA
S3150800961008F10F03554800931022434600680EA927
S3150800962028F04FFB4FF0000A05900EAE059B5345F8
S3150800963015D14F4B08F110089845E9D13A234B4804
S315080096408DF838304449012300680EAA09F0F6FB64
S3150800965000283FF463AFBDE04D459CD15AE700238F
S315080096603068CDE9083309AA08AB0AA9FFF700FE56
S315080096703C4B984261D018B1013B984240F0AA8011
S315080096800A9B394ADDF820B0934202D04B4540F098
S31508009690A18001200BF1100126F0A7FA0546002843
S315080096A000F09B80089B0246304800933168099B6E
S315080096B0006809F05BFC30BB0A9B4B4519D1DDE914
S315080096C00C010B9B5A4600932B4600F08FF88346F5
S315080096D090B110F1850F0FD0089A00212846103254
S315080096E023F0E8FB284626F090FA58461FB0BDE856
S315080096F0F08F1D4A934209D01C4B3168186809F04F
S31508009700CDFC014658B16FF0910BE5E70B9B5A4625
S31508009710DDE90C0100932B46FFF74CFED7E7089AC4
S315080097202846103223F0C6FB284626F06EFA043681
S315080097300AF1010A7AE7029B13B96FF08B0BD4E79B
S31508009740002E18BF34462A9B4FF0000B1C60CCE74E
S31508009750358B002074110020FF6C08000BE000F028
S3150800976000310800FFDF00F0105D175E6C11002065
S31508009770003508007821002070210020D175E10508
S31508009780DDE9282339462046FFF772FD144B984237
S3150800979002D01233984218D1124B2146186809F0A4
S315080097A07DFC0028C9D1D7E90223DDE903108342ED
S315080097B008BF8A427FF4CFAE029B002BC3D07B68DA
S315080097C0012BC0D16FF0840B8FE70028EBD0064B36
S315080097D09842E8D06FF0910B87E76FF08C0B84E71F
S315080097E0FFDF00F06C110020FEDF00F02DE9F04FDE
S315080097F08BB08246894698461646DDF850B00AB1BF
S31508009800002B4FD0BBF1010F4FD8002406F11807E3
S3150800981039460120059426F0E8F90546002847D080
S3150800982021463A4623F046FBFFF78CFD05ABCDE90A
S315080098300143009401225046494606ABFFF72AFE2B
S31508009840044690B110F18C0F08BF6FF08D043A46AC
S315080098500021284623F02EFB284626F0D6F9FFF7E6
S315080098609BFD20460BB0BDE8F08F134BC5E902A956
S315080098702B60C5F810B02EB13246414605F11800E6
S315080098802CF088F8059E0D483B462A463146006866
S3150800989009F0D4FA18B93046FFF764FCD7E76FF039
S315080098A09104D4E76FF08604DBE76FF08504D8E708
S315080098B06FF08C04D5E700BFD175E1056C11002067
S315080098C02DE9F0478CB08146DDE914780C4616463A
S315080098D01D466BB1B8F1000F49D0002F47D0B7F13C
S315080098E0005F44D3C3F1005303F580239F423ED85B
S315080098F04FF0000A1022002108A823F0DBFACDE970
S3150800990005AAFFF71FFD07AB029305AB019306AB4C
S31508009910214600935246484608ABFFF7BBFD04466E
S31508009920D0B9059B3DB1B3421CD853EA060504D00D
S315080099306FF0860410E0B342FAD3069B0D48C8F8C8
S31508009940005000953A4607990068334409F00EFB23
S31508009950002818BF6FF09104FFF71EFD20460CB0D3
S31508009960BDE8F0879B1B9D4228BF1D46E5E76FF0C3
S315080099708604F3E76C11002070B500260C460546F0
S315080099808CB01022002108A823F094FACDE90566C8
S31508009990FFF7D8FC07AB029305AB019306AB21464C
S315080099A000933246284608ABFFF774FD0446D8B93B
S315080099B0099B012B1DD0079D114B2946186809F0F4
S315080099C06DFBC8B90122A5F506230E49A3F5506318
S315080099D05B0905F01F00824051F8230042402846E3
S315080099E041F82320FFF7DAFBFFF7D6FC20460CB038
S315080099F070BD6FF08404F7E76FF09104F4E700BFD9
S31508009A006C1100207821002030B5048804F4E04366
S31508009A10B3F5005F2ED1C4F30223042B2AD181F0BB
S31508009A20AA6383F4807333F47E132AD081F0AA6381
S31508009A3083F4007333F47E1323D00023144D21F4EA
S31508009A407E11A9421AD1B4F5105F17D1418821F0C9
S31508009A504000802802D0B1F5807F15D1191F0C2946
S31508009A6012D8DB0710D4073A072A34BF00206FF054
S31508009A70860030BD42F204039C42DED16FF08500B9
S31508009A80F7E7C1F30543D9E76FF08600F1E700BFB2
S31508009A90000140052DE9F04F9DB08146DDE92A76A3
S31508009AA01D468B46DDF8B080DDF8C4A0099241B1A9
S31508009AB038B1269B2BB1289B0BB9299B0BB91FB92B
S31508009AC04EB16FF086047FE02EB1B8F1000FF8D0E2
S31508009AD02D9B002BF5D02E9B002BF2D0BAF1000F50
S31508009AE0EFD0309B002BECD02F9B002BE9D0B9F898
S31508009AF0003003F4E042B2F5005F69D1C3F30222F5
S31508009B00042A65D185F0AA6383F4807333F47E133F
S31508009B1006D085F0AA6383F4007333F47E1360D10C
S31508009B20C5F3054329464846279ACAF80030FFF781
S31508009B306BFF0446002847D10146242213A823F0C8
S31508009B40B9F9202221460BA823F0B4F913A823F06B
S31508009B5003FD002855D159464846099A0BAB00F033
S31508009B6003FB044600282FD12D9B9E424CD8DAF8D9
S31508009B700030309A934247D8474508D2BB199845D2
S31508009B8005D23946324640462BF0DCFE4746204B86
S31508009B9025F47E159D4226D1DAF800303246069322
S31508009BA02F9B0397CDE90483299B0BA90293289B36
S31508009BB013A80193279B0093269BFEF7D3FE212823
S31508009BC019D0D8B92E9B1E6020461DB0BDE8F08F6F
S31508009BD042F20402934204D185F0052383F48013EC
S31508009BE09BE700239EE76FF0880400232E9A1360F4
S31508009BF0CAF80030E8E76FF08604F6E76FF09204DB
S31508009C00F3E76FF09204DFE76FF08904DCE700BF43
S31508009C10000140052DE9F04F9BB08A46DDE928652D
S31508009C209346984681462C9F28B96FF086042046AD
S31508009C301BB0BDE8F08F0029F7D0249B002BF4D089
S31508009C40269B13B9279B002BEFD10EB9002DECD11B
S31508009C5017B92D9B002BE8D12E9B002BE5D02A9B0C
S31508009C60002BE2D041464846259AFFF7CDFE04462A
S31508009C700028DCD10146242211A823F01BF9202252
S31508009C80214609A823F016F911A823F065FC10B19E
S31508009C906FF09204CBE75A465146484609AB00F0A6
S31508009CA063FA04460028C2D12D9B9D422AD8BE429B
S31508009CB008D273199F4205D231462A4638462BF0F8
S31508009CC041FE3E46144B28F47E1898451DD12B9B21
S31508009CD02A4606932A9B0396CDE90473279B09A96E
S31508009CE00293269B11A80193259B0093249BFEF7BC
S31508009CF00FFF212899D02C280AD00028C8D12E9BDE
S31508009D001D6094E76FF0890491E76FF088048EE789
S31508009D106FF094048BE700BF00014005084B98429A
S31508009D2002D0084B984207D10B88B3F5105F0CBFD9
S31508009D3000206FF0850070476FF08500704700BF00
S31508009D40004440040013C0042DE9F04F994600234F
S31508009D50A5B09346DDE93074DDE93268CDE907330D
S31508009D60CDE90933CDE90B33CDE90D33DDF8D0A0C4
S31508009D700490059129B96FF08605284625B0BDE8F7
S31508009D80F08F002AF7D00FB9002CF4D12E9B13B907
S31508009D902F9B002BEFD116B9B8F1000FEBD1BAF112
S31508009DA0000FE8D048460499FFF7B8FF0546002893
S31508009DB0E3D1014624221BA823F07CF82022294659
S31508009DC013A823F077F81BA823F0C6FB002878D140
S31508009DD0DDE904015A4613AB00F0C6F9054600282A
S31508009DE0CBD1139823F087FF05460028C5D114B9AF
S31508009DF0CAF80000C1E7B7420AD23B199E4207D209
S31508009E004445B8D83946224630462BF09BFD37469E
S31508009E104E4B994558D003F54073994515D04C4B90
S31508009E20994540F08C804445A5D814F00F02A2D17C
S31508009E302346CDE9007613A91BA8FEF76DFC074655
S31508009E40002834D1CAF8004097E700234445CDE9F5
S31508009E500F33CDE911338ED82F9B0D2B8BD10123D0
S31508009E608DF83C302E9B0DF13D0203F10C0153F8A1
S31508009E70040B8B4242F8040BF9D11B7813700123AB
S31508009E808DF84B3014F00F0933D10F2CDAD907AB04
S31508009E9001930FABCDE90276009324F00F0200235D
S31508009EA013A91BA8FEF790FC0746002843D0424694
S31508009EB00021304622F0FEFF0023012FCAF80030A9
S31508009EC040D06FF0920558E744453FF654AF2F9BB4
S31508009ED0102B7FF450AF2E9B0DF13C0C03F1100EA6
S31508009EE0624618685968083303C273459446F7D121
S31508009EF0C8E724F00F033B440DF12C0C03F1100EB8
S31508009F00624618685968083303C273459446F7D100
S31508009F100F2CBCD824F00F03334403930BAB0293E6
S31508009F2007AB01930FAB00934A46002313A91BA85E
S31508009F30FEF74AFC83E7B9F1000F83D0EAE76FF032
S31508009F4085051AE76FF08B0517E700BF0010C004F8
S31508009F50004440042DE9F04F0C46A3B00021DDE98A
S31508009F602CB6DDE92F5A0746904601A820229946C5
S31508009F7022F0A0FF2022002109A822F09BFF202220
S31508009F80002111A822F096FF2422002119A822F008
S31508009F9091FF54B1B8F1000F07D0BBF1000F04D000
S31508009FA02E9B13B1BAF1000F05D16FF08604204637
S31508009FB023B0BDE8F08F2188628801F4E043B3F549
S31508009FC0804FF2D0264B27483B4043F0106383422C
S31508009FD002D06FF08504EAE7D31DB9EBD30F4FEA39
S31508009FE0D307E2D3AF4235D847F241139942F0D1AD
S31508009FF0B742DAD8FF2AECD11B4B033609932E9BBE
S3150800A0000335204615934A46414626F0030625F0B1
S3150800A010030501ABCDF834B00E961695129700F0ED
S3150800A020A3F804460028C2D10B9B119043F40053B1
S3150800A03019A80B9323F090FA78B911AB09AA01A9CC
S3150800A04019A8FEF731FF10B14828AED1C1E7CAF802
S3150800A0500070ACE76FF08904A9E76FF09204A6E7F1
S3150800A0600000FFF600000209200000B0F8B513460C
S3150800A07042880C460732072A4FEAD20101D0A1428C
S3150800A0806DD146680588C76820221846002122F047
S3150800A09011FF360A034626B1012E11D06FF08B0048
S3150800A0A0F8BD002C5BD041F20102954205D0B5F50A
S3150800A0B0885F02D0B5F5905F1BD15C600020EFE7A2
S3150800A0C0C660002C4BD041F2010295420BD15C6070
S3150800A0D0B90707F001021FD4002AEFD19A6842F0A7
S3150800A0E080729A60EAE7B5F5885FF0D0B5F5905FBB
S3150800A0F0EDD0B5F5105F0AD1182C03D0202C01D06D
S3150800A100102C2CD1C3E90044002ED7D0E0E705F483
S3150800A1104F42B2F5824F02D06FF08500C0E7EAB22F
S3150800A120412AF9D1202CF7D10E4A25F0FF05B5F5BD
S3150800A130E24F1A600CD0B5F5824F10D14FF4005299
S3150800A14017F4705F09D017F4864F04D09A60E3E7D6
S3150800A1504FF48042F4E742F480629A60D4E76FF0E5
S3150800A16086009DE7200000B02DE9F0411646002242
S3150800A1701C4643688CB01B0A07460D46009204D05D
S3150800A180012B5ED06FF08B0096E0018821F0FF036B
S3150800A190B3F5824F53D1428808460732D208009257
S3150800A1A023F0B5FD58B12B78042B05D1013EB6EB4B
S3150800A1B0420F05F1010509D06FF086007CE04139B0
S3150800A1C0C9B2012900F2CA80B242F5D1DDF8008091
S3150800A1D0224641463846FFF749FF00286CD1F21C53
S3150800A1E0C4E9030522F003026261B8F1000F00F02A
S3150800A1F0A6802022002101A822F05CFE41463846AE
S3150800A20001AAFFF733FF002840F099802368019AD6
S3150800A2109A4240F094806368029A9A4240F08F808E
S3150800A220A368039A9A4240F08A80A369079A9A42D9
S3150800A23040F08580E369089A9A423DD07FE000960F
S3150800A240C4E7032EB8D90B78012B40F08A804978E9
S3150800A25000294BD0F739082994D801A353F821F0DF
S3150800A260C9A2000885A2000885A10008BFA20008A7
S3150800A27085A10008E3A2000885A10008D3A200086A
S3150800A280DBA200084FF41056F825374F1C22002190
S3150800A29002A822F00FFE03230197CDE904350396A1
S3150800A2A001AA09AD134603CBAB42206061601A468A
S3150800A2B004F10804F6D100200CB0BDE8F08110279F
S3150800A2C04FF08076FA25E1E720274FF00076F7254C
S3150800A2D0DCE7FE25244F254ED8E7FF25224F244EDE
S3150800A2E0D4E74FF41056FC251F4FCFE72B2E7FF6E9
S3150800A2F063AF2022204622F0DDFD05F1100323611D
S3150800A300AB070DD001AB05F1280C1A462868696819
S3150800A310083503C265451346F7D1286801AD1060B4
S3150800A3206B68103E2360AB6869466360EB6820463D
S3150800A330A36001236661E36023F01DF928B120229A
S3150800A3400021204622F0B6FD36E7DDF80080626976
S3150800A35008F11C039A42BFF448AFF0E76FF0850096
S3150800A360AAE76FF09100A7E72000008000440002EA
S3150800A370004400032DE9F04F91B0DDF8688081466E
S3150800A3800C4692469B461C9FB8F1000F05D16FF00C
S3150800A3908604204611B0BDE8F08F002FF7D00028BC
S3150800A3A0F5D02422002107A822F084FD07A823F06F
S3150800A3B0D3F810B16FF09204EBE714F47C1FC4F3E2
S3150800A3C005452AD0102DE2D81B9B9D4233D81D4B3C
S3150800A3D024F47E149C4231D1002303AECDE9033325
S3150800A3E0CDE9053352465B464946009607A8FEF76F
S3150800A3F04DFC044698B92A46314640462BF0CAFA1F
S3150800A400234633550134102CFBD100243D6007A8A0
S3150800A41023F0ACF80028BCD0CCE71025D4E72128D7
S3150800A42006D0012814BF6FF092046FF08B04EEE794
S3150800A4306FF08604EBE76FF08904AAE76FF08504EE
S3150800A440A7E700BF0002C0032DE9F0438DB0174609
S3150800A450DDE9149498460E4601B96ABBB8F1000FB7
S3150800A4600DD1B9F1000F27D134B3164B984226D136
S3150800A47000236FF0890023600DB0BDE8F083DCB1DE
S3150800A480104B98421BD11423B9F1130F2360EFD94F
S3150800A49003A823F061F8054610B16FF09200EBE7C8
S3150800A4A03B4632460121CDE9008903A8FEF7B6FCF2
S3150800A4B00028E1D02560F0E76FF08600DCE76FF052
S3150800A4C08500D9E70500000213B50024094B186872
S3150800A4D09A889B7900906846ADF804208DF8063076
S3150800A4E08DF80040FDF750FD0920FDF785FD204653
S3150800A4F002B010BD305F0308084A13B5536F002435
S3150800A50043F0010353672023684600948DF804300E
S3150800A510FDF738FC204602B010BD00BF00400050D1
S3150800A52030B58BB06C46174D0FCD0FC40FCD0FC489
S3150800A53095E8030084E80300134BD3F84C21120373
S3150800A5401CD5A3F5FE431C884FF6FF739C4208BF33
S3150800A55064248DF81940FDF7C9FA204480F30800F1
S3150800A5608DF818000948FCF783F96846FDF7F4F9F1
S3150800A5703220FDF705FB00200BB030BDD3F8504163
S3150800A580E4B2E6E7385F03080080E00FC01753021D
S3150800A59030B5094D87B001AC0FCD0FC42B6801A8A3
S3150800A5A0236023238DF80530FDF7A6FA3220FDF740
S3150800A5B0E1FA002007B030BD605F03086FF00403BE
S3150800A5C0502110B50A480B4C13F0800F03F1010215
S3150800A5D007D123444F2A83F800131346F4D10020E9
S3150800A5E010BD03F00F03043B034419761346EBE74B
S3150800A5F000ED00E000E100E038B500F00DFF04468C
S3150800A600E0B900F0D5FF4FF4167343430C4A03F53F
S3150800A610742303F23F23B3FBF2F30A21094A0A48DB
S3150800A62013600A4D0268013911F0FF0145F8043B31
S3150800A630F9D11A4403EBC30313440360204638BD1B
S3150800A64040420F0018220020E8210020EC210020BB
S3150800A650012208B5034B1A7023F0AEFE024B1860B0
S3150800A66008BD00BF378B0020E4210020F8B51C4C3C
S3150800A6702378D3B123F0A0FE1A4B1B4D1B68C01AD2
S3150800A680012838BF0120286000F092FF4FF41673A6
S3150800A6905843164B00F5742000F23F20B0FBF3F048
S3150800A6A02968814202D900232370F8BD104D114E46
S3150800A6B02B78114F56F8232046F82310501A0A21F2
S3150800A6C03A680133121A3A600932B2FBF1F20B48C2
S3150800A6D0DBB20260B3FBF1F201FB12332B70E2E747
S3150800A6E0378B0020E42100201422002040420F006E
S3150800A6F0388B0020EC210020E821002018220020B9
S3150800A700014B1868704700BF1822002020234FF419
S3150800A71080120A4981F82D33094B5A66094B0A4AB1
S3150800A72003F50050426702674FF40050C1F88401F0
S3150800A730486003F580535A67704700BF00E100E0A0
S3150800A740009000500040005A010000A0044B9A6D8A
S3150800A750D20702D40028FAD170470120704700BFFB
S3150800A7600040005A0C4B10B51C6FE20707D50122B2
S3150800A77003F500531A67FFF779FF00F085FB14F01D
S3150800A78000521CBF054B1A67002CBEBF4FF0004293
S3150800A790024B1A6710BD00BF0040005A0060005AFD
S3150800A7A0BFF35F8F074B5A6A22F480325A62D3F896
S3150800A7B0942022F00102C3F89420BFF34F8FBFF311
S3150800A7C06F8F704700ED00E070B52948294CFFF7F8
S3150800A7D0E7FF8442284D294919D1D5F8C03023F01E
S3150800A7E0FF0343F0A003C5F8C0304FF080430A6862
S3150800A7F0214D234EC5F8982043F0010301328442C7
S3150800A800C5F89C60C5F8A0300A601ED00DE0D5F8E2
S3150800A810C02020F01F03203B22F0FF0242F0A002D6
S3150800A820B3F1005FC5F8C020E1D2164B0A6812489A
S3150800A83023F01F0343F00303C0F89820C0F89C30A8
S3150800A840114B0132C0F8A0300A60BFF35F8F0522B2
S3150800A850094BC3F894205A6A42F480325A62BFF30D
S3150800A8604F8FBFF36F8FBFF34F8FBFF36F8F70BDDF
S3150800A870CC1400207816002000ED00E01C220020F1
S3150800A8800300002097160020E1FFFF3FF8B51446A5
S3150800A890FFF786FF1F2C27D90027C2062A4D1CBFA3
S3150800A8A020F01F0020302A68CB06284B18BF21F05D
S3150800A8B01F01FCB2A2422BD8D3F8C04020F01F00DB
S3150800A8C024F47F4444F4807421F01F01C3F8C04087
S3150800A8D040F00300C3F8982041F003010132C3F8A1
S3150800A8E09C00C3F8A0102A600020BFF35F8F0522E2
S3150800A8F0164BC3F894205A6A42F480325A62BFF360
S3150800A9004F8FBFF36F8FBFF34F8FBFF36F8FF8BDB6
S3150800A910C3F89840D3F89C40D3F8A06024F01F04ED
S3150800A920A04226F01F0601D1B142DDD0B04201D8BF
S3150800A930A14207D2D3F89840013724F0FF04C3F8A0
S3150800A9409840B6E72820D0E71C22002000ED00E05A
S3150800A950BFF34F8F0549064BCA6802F4E0621343FA
S3150800A960CB60BFF34F8F00BFFDE700BF00ED00E0EF
S3150800A9700400FA05054B1A782AB95B78002B0CBF38
S3150800A9800320022070470120704700BF438B002038
S3150800A9900329F8B598BF124B05460E468CBF00240E
S3150800A9A05C5C032805D8DFE800F002080B0E44F0CB
S3150800A9B002040C4B1F684FB9F8BD44F00804F8E7C9
S3150800A9C044F02004F5E744F08004F2E77B681A684F
S3150800A9D0144203D0314628465B6898473F68EAE741
S3150800A9E0745F03084C22002038B5104D2B78ABB1A4
S3150800A9F00F4C23781BB100F099FB0023237000202D
S3150800AA0000F0BCFB0B4C50B100F0C2FB0023012147
S3150800AA1020782B70FFF7BCFF0123237038BD012275
S3150800AA20054B1A702278054B1A70F7E73E8B002003
S3150800AA303C8B0020458B00203F8B0020408B00205C
S3150800AA4010B522F0D8FB064B04461B781BB1BDE8AF
S3150800AA50104022F0D4BBFFF7C7FF2046F7E700BF38
S3150800AA603B8B0020094A137830B101331370084B29
S3150800AA701B78012B03D87047013B13707047054BB1
S3150800AA801B780BB9FFF7B0BF704700BF438B002098
S3150800AA90458B00203F8B002070B522F0ACFB134E8F
S3150800AAA005463378ABB900F0B7FC044620B1284612
S3150800AAB022F0A5FB204670BDAFF300800C4822F0BB
S3150800AAC026FB00F001FF0B4B1C6000F071FD0A4BE2
S3150800AAD0186000F01FFA23F027FC084B00241860C2
S3150800AAE001232846337022F08AFBE3E7468B0020D1
S3150800AAF04C22002020220020482200202422002068
S3150800AB002DE9F843284A0138135C39B1274F013338
S3150800AB1039781354012904D8BDE8F883013B135446
S3150800AB20FAE7FFF727FF0128044635D822F063FB2A
S3150800AB30DFF88480054698F8003013B31C4E337846
S3150800AB401BB9012232701B4A1370DFF8709099F80E
S3150800AB50003023B100F0EAFA002389F800302846CD
S3150800AB6022F04DFB012000F009FB22F044FB33786C
S3150800AB7005461BB100F00CFB00233370002388F850
S3150800AB800030284622F03BFB3878A042C4D0214644
S3150800AB90FFF7FEFE3C70BFE70329F5D10228F3D183
S3150800ABA023F0C6FBF0E700BF438B0020458B00204F
S3150800ABB03B8B00203F8B00203E8B00203C8B0020E7
S3150800ABC038B522F018FB094B05461B78012B04D82B
S3150800ABD022F015FB0024204638BD054B1C6800F002
S3150800ABE031FB0444284622F00AFBF4E7458B002093
S3150800ABF02022002038B54160044622F0FCFA0546BA
S3150800AC002146044822F086FA2846BDE8384022F054
S3150800AC10F6BA00BF4C220020054B1B685843054B6B
S3150800AC2000F5742000F23F20B0FBF3F0704700BF38
S3150800AC304822002040420F002DE9F04F85B0EFF37F
S3150800AC40108772B6AFF3008025F074FD00286FD028
S3150800AC50804EDFF82C82337823B10020FFF702FFFD
S3150800AC6000233370FFF786FE0446002867D0841E4B
S3150800AC70E4B2012C6AD9FFF77DFE01280546764C19
S3150800AC80DFF8009200F28C802078854240F0C6807A
S3150800AC90207800F0C1FA99F8003013B16F4B1B7891
S3150800ACA02370AFF3008007B962B6EFF3108772B668
S3150800ACB06B4B1A7852B100221A70684B20781B78B1
S3150800ACC0984203D101212170FFF762FE654800F022
S3150800ACD0DDFB06F01DF905460028BCD1624BDFF8FE
S3150800ACE09481187098F80030ABB189F80000DFF845
S3150800ACF08C9199F800301BB100F018FA89F80050C9
S3150800AD00002000F03BFA002800F09B8000F040FA93
S3150800AD10002388F80030337823B10020FFF7A2FE1D
S3150800AD200023337000212078FFF732FE00232370BA
S3150800AD30AFF3008007B962B605B0BDE8F08F337887
S3150800AD40002B98D0FFF78EFE347094E7002003A9F5
S3150800AD5000F0EAFB044600288DD1D8F80030039AA3
S3150800AD609A4205D80120FFF77DFE0123337082E75A
S3150800AD703E4B1D6800F066FA039B05449D42F1D2DE
S3150800AD8000F070FA8200039942F0020292B2CDE90D
S3150800AD9000422346364A491B324823F0CAFA6AE774
S3150800ADA0344BDFF8C4A093F800B0BBF1000F25D1EF
S3150800ADB000F03AF92078854230D19AF800307BB90C
S3150800ADC02C4D2B78002B7FF463AF2B4B1B7823B9C4
S3150800ADD000F0A6F90122294B1A7001232B7057E7B8
S3150800ADE0022DEDD18AF800B015E02378022B25D183
S3150800ADF000238AF8003027F040F91FE020788542C2
S3150800AE000CD19AF80030002B3FF442AF022DD7D16F
S3150800AE1000238AF8003027F030F9D1E70023DFF85D
S3150800AE2048A08AF8003099F8003013B92946FFF788
S3150800AE30AFFD9AF800302570002BD6D1012DBFD86A
S3150800AE4026E7012000F0E8F907B962B6EFF31087A4
S3150800AE5072B655E73D8B0020458B0020408B0020BD
S3150800AE60398B002028220020418B00202022002038
S3150800AE7041AA00083E8B0020428B00203C8B002014
S3150800AE80242200203F8B002010B5094B1B786BB19C
S3150800AE90084C237853B100F07BF90023064A237047
S3150800AEA013700123054A1370054A137010BD00BFBD
S3150800AEB0458B00203F8B00203E8B00203A8B0020DC
S3150800AEC0398B002073B5114E0446337883420FD070
S3150800AED04FF400730E4DADF8043058B101A8FCF7D5
S3150800AEE009FF4020FFF798FE2B68181A286034706F
S3150800AEF002B070BD8DF8050001A8FCF7FBFE4020E6
S3150800AF00FFF78AFE2B681844F0E700BF8714002075
S3150800AF105022002073B5002401A88DF80440FCF7E0
S3150800AF2093FF2046FFF7CEFF364A3749136F374857
S3150800AF3003F007030B60D2F80011354C01F003014A
S3150800AF4001604FF480103349032B48664FF40030F4
S3150800AF50486601F59831896901F00200C1F340019C
S3150800AF60217046D0D2F8203103F00703991E4B42D0
S3150800AF704B41D2F82811284D01F00701022908BFD4
S3150800AF8043F0010325490B7058B33BB9D2F8003199
S3150800AF9003F003035A1E534253410B70194BD3F85F
S3150800AFA0003103F00303022B25D0032B26D0012BF7
S3150800AFB017D1FBF757FC024698B1194B194EDC68B6
S3150800AFC000231946C4F30B04013404EB8404013846
S3150800AFD0E4FB060121F0FAFAFFF71EFE2B6803448C
S3150800AFE02B601F20FFF718FE2B6803442B6002B066
S3150800AFF070BD0123BDE7FBF791FCDCE721F0F9FF03
S3150800B000D9E700BF008000505422002058220020B3
S3150800B010498B002000900050502200204A8B0020C7
S3150800B02000C0015040420F00074A0849D2F82031B3
S3150800B03003F007030B60D2F82831054A03F007032B
S3150800B040136022F0EAB800BF00800050602200209A
S3150800B0505C22002008B5164B1A7822B300221A7013
S3150800B060144B1A6F22F0070242F001021A67D3F84E
S3150800B070202122F0070242F00302C3F82021D3F868
S3150800B080282122F0070242F00302C3F828210A4BBE
S3150800B0901B7833B10122094B5A60094A53689B074A
S3150800B0A0FCD4FBF7C9FB0122064B5A6708BD00BF53
S3150800B0B0488B002000800050498B002000E001509A
S3150800B0C000C001500060005A0122114B10B55A67A2
S3150800B0D0104B114C1B78A3B1022000F0C9FB80B1BC
S3150800B0E000F052FA68B1A36DD90302D5E36D9A0749
S3150800B0F003D4094B9B6DDB0704D54FF48032044B10
S3150800B1009A6210BD0122054B1A70FFF7A1FAF4E7FF
S3150800B1100050005A4A8B00200040005A478B0020F6
S3150800B1200122014B1A707047488B00200F4B10B54F
S3150800B1301B7883B10E4C2378A3B90E4B9A6DD103B5
S3150800B14002D5DA6D920702D49B6DDB0704D54FF45E
S3150800B1508032094B9A6210BDFFF77AFA4FF48032B3
S3150800B160054B9A6200232370F5E700BF4A8B00203F
S3150800B170478B00200040005A0050005A034B1B78AA
S3150800B1800BB1FFF7E3BA0120704700BF4A8B0020D6
S3150800B19008B522F043F8174B1B7833B10122164B3A
S3150800B1A05A60164A9369DB07FCD5154B15491A6F81
S3150800B1B0096822F007020A431A671349D3F82021BF
S3150800B1C0096822F007020A43C3F820210F49D3F879
S3150800B1D02821096822F007020A43C3F828210C4BE4
S3150800B1E01B781BB14FF480320A4B9A62BDE80840BF
S3150800B1F0FBF722BB498B002000D0015000C001504C
S3150800B2000080005054220020602200205C2200208A
S3150800B2104A8B00200060005A02280AD003280BD067
S3150800B22001280CD1064A136923F00403136130BFC1
S3150800B23070470020FCF76ABD0020FCF787BD704701
S3150800B24000ED00E008B5054B187818B1FFF758FA75
S3150800B25000EBD000024B1B68184408BD4A8B00203F
S3150800B26050220020014B1878704700BF4A8B0020F7
S3150800B27038B500F0B7FA0025084B094C1A68236858
S3150800B280C31A2AB123B15169994203D3C91A516124
S3150800B290206038BD55615B1A9268F2E76C2200207F
S3150800B2A068220020C38870B504460D463BB9FFF7EF
S3150800B2B087FC8542064602D223F02BF835460E490E
S3150800B2C065610B688BB90C60A3600DE0AD1A9A68CE
S3150800B2D0184665616AB113465A69AA42F6D930B169
S3150800B2E08460521BA3605A6170BD0020F4E70C60AD
S3150800B2F0F7E79C60A260F7E76C22002038B5134D8B
S3150800B3002B685B6993B1124A022014681C4400F04A
S3150800B3106FFA204600F074FA00230E492A680B706B
S3150800B320D088800709D501230B7038BD022000F0AC
S3150800B3305FFA022000F094FAEEE79268002AF4D049
S3150800B34050690344012BEBD9EFE700BF6C220020BC
S3150800B350682200204C8B002070B516469DF81420F4
S3150800B360C0E903360271049ABDF81830026000225B
S3150800B37004460D468260C380EEB900F033FA2844CD
S3150800B380A0619DB12E4621F036FF0546FFF770FFF6
S3150800B39031462046FFF786FF104B1B68A34201D1B2
S3150800B3A0FFF7ACFF284621F02AFF02E0E368656153
S3150800B3B07BB9002070BD00F015FA3044A061002D5D
S3150800B3C0E0D1E3686561002BDDD020462168984707
S3150800B3D0D9E7204621689847EBE700BF6C22002092
S3150800B3E000220C490B687BB183420AD183687AB183
S3150800B3F0936083681BB15A6941690A445A610020FF
S3150800B40070471A469B68EEE70028EFD0022070477F
S3150800B4100B60EEE76C22002070B521F0F3FE144EA7
S3150800B42005463478FCB9134B1C60134B1C60134B50
S3150800B4301C8000F0A7F9012000F0DAF922F0D3FF0A
S3150800B4400F4B0246186020B9284621F0E1FE23205A
S3150800B45070BD234640F2E7310A4821F0B7F80A4B97
S3150800B460186001233370284621F0D2FE0020EFE74A
S3150800B4704D8B00206C22002068220020508A002074
S3150800B4807022002018FCFFFF6422002070B50446D5
S3150800B49040B321F0B0FE144E0546FFF7E9FE3068CA
S3150800B4A0A04209D02046FFF79BFF0446B0B12846C4
S3150800B4B021F0A5FE204670BDFFF792FF044600283E
S3150800B4C0F5D133683BB9022000F0C2F9284621F0CD
S3150800B4D096FE0024EEE7FFF711FFF7E73368002B27
S3150800B4E0F4D1F0E72224E5E76C22002038B50C46B3
S3150800B4F00546A8B1A1B100230B7021F083FE0121F6
